:020000040000FA
:100000000C9463000C948B000C948B000C948B006C
:100010000C948B000C948B000C948B000C945E045D
:100020000C948B000C948B000C948B000C942A0580
:100030000C948B000C948B000C948B000C948B0014
:100040000C94E0040C948B000C948B000C948B00AB
:100050000C948B000C948B000C948B000C948B00F4
:100060000C948B000C948B000000000024002700EF
:100070002A000000000023002600290000000008DC
:10008000000201000003040700000000000000005F
:10009000010204081020408001020408102001021F
:1000A0000408102000000000250028002B00040494
:1000B0000404040404040202020202020303030310
:1000C00003030200230B11241FBECFEFD8E0DEBFD5
:1000D000CDBF11E0A0E0B1E0EAE5F8E102C0059093
:1000E0000D92A23DB107D9F722E0A2EDB1E001C027
:1000F0001D92A13AB207E1F710E0C3E6D0E004C0D8
:100100002197FE010E94250CC236D107C9F70E9433
:10011000E6050C942B0C0C9400008F929F92AF92EA
:10012000BF92FF920F931F93CF93DF93F0908602BD
:100130002BE02F1508F44CC02091880208E512E04E
:10014000021B110927FD1395000F111F000F111F2E
:1001500020918702C8E8D0E0C21BD10927FDD395C2
:10016000CC0FDD1FCC0FDD1F4E010D2E000CAA0899
:10017000BB089801012E000C440B550B28193909B6
:100180004A095B09DC010E94E00B24EB30E040E00F
:1001900050E00E94B60B820E931EA41EB51E8C1654
:1001A0009D062CF0E801801691060CF4E4012297DC
:1001B000CC0FDD1F2FB7F8948F2D90E0FC01EE0FD0
:1001C000FF1FE80FF91FEE59FD4FD283C1832FBFE8
:1001D000DF91CF911F910F91FF90BF90AF909F90B3
:1001E0008F90089596E0899FD0011124AD50BE4FA5
:1001F00090967C936E935F9791E091969C939197E4
:10020000E0916002F091610290915F02992339F0D0
:10021000309751F0811108C080910F0209943097F6
:1002200019F05C968C91FACF0895CF92DF92EF92FD
:10023000FF920F931F9396E0899FF0011124ED50D8
:10024000FE4F11A2278D30A12130310551F178F0F8
:100250002230310509F451C02330310509F452C070
:100260001F910F91FF90EF90DF90CF90089566233C
:10027000B9F361E070E00E94F2002FB7F89480912A
:10028000EF019091F001A091F101B091F2012FBF27
:1002900080934B0290934C02A0934D02B0934E0278
:1002A000DFCF9FB7F894C090EF01D090F001E090BD
:1002B000F101F090F2019FBF00914B0210914C02AE
:1002C00020914D0230914E02C01AD10AE20AF30A7F
:1002D00000915D0210915E0230E020E00C151D05DA
:1002E0002E053F0550F462E070E01F910F91FF90E2
:1002F000EF90DF90CF900C94F2006111B1CF63E0EA
:1003000070E0F3CF70E060E0F0CFAF92BF92CF9299
:10031000DF92EF92FF920F931F93CF93DF936C01C5
:100320007B018B01040F151FEB015E01AE18BF08A6
:10033000C017D10759F06991D601ED91FC91019058
:10034000F081E02DC6010995892B79F7C501DF9170
:10035000CF911F910F91FF90EF90DF90CF90BF90C2
:10036000AF900895833081F028F4813099F0823085
:10037000A9F008958730A9F08830C9F08430B1F42D
:10038000809180008F7D03C0809180008F77809363
:100390008000089584B58F7784BD089584B58F7DDE
:1003A000FBCF8091B0008F778093B000089580914B
:1003B000B0008F7DF9CFCF93DF93282F30E0F90184
:1003C000E458FF4F8491F901E057FF4FD491F901B0
:1003D000E255FF4FC491CC23A1F081110E94B201DC
:1003E000EC2FF0E0EE0FFF1FEE58FF4FA591B491F8
:1003F000EC91ED2381E090E009F480E0DF91CF9172
:10040000089580E090E0FACF862F0C94DB011F93D3
:10041000CF93DF93282F30E0F901E458FF4F849108
:10042000F901E057FF4FD491F901E255FF4FC49114
:10043000CC23A9F0162F81110E94B201EC2FF0E01D
:10044000EE0FFF1FEC55FF4FA591B4918FB7F894B5
:10045000EC91111108C0D095DE23DC938FBFDF91A2
:10046000CF911F910895DE2BF8CF862F642F0C9427
:100470000702CF93DF9390E0FC01E057FF4F2491F8
:1004800082559F4FFC0184918823C9F090E0880F2A
:10049000991FFC01E859FF4FA591B491FC01EC555F
:1004A000FF4FC591D49161110DC09FB7F8948C9105
:1004B000209582238C938881282328839FBFDF91F6
:1004C000CF910895623051F49FB7F8943C91822FF8
:1004D000809583238C93E8812E2BEFCF8FB7F894F0
:1004E000EC912E2B2C938FBFEACF862F642F0C9488
:1004F00039023FB7F8948091D5019091D601A0912F
:10050000D701B091D80126B5A89B05C02F3F19F09F
:100510000196A11DB11D3FBFBA2FA92F982F882783
:10052000BC01CD01620F711D811D911D42E0660F5E
:10053000771F881F991F4A95D1F708958F929F9230
:10054000AF92BF92CF92DF92EF92FF924B015C018C
:100550000E9479026B017C010E9479026C197D096D
:100560008E099F09683E734081059105A8F321E03B
:10057000821A9108A108B10888EEC80E83E0D81E3F
:10058000E11CF11C81149104A104B10429F7FF902E
:10059000EF90DF90CF90BF90AF909F908F90089595
:1005A000089590E080E00895FC0101900020E9F7B3
:1005B0003197AF01481B590BBC0189E892E00C94BC
:1005C0008501CF93DF930E94D402EC018AE291E08F
:1005D0000E94D4028C0F9D1FDF91CF9108950C943F
:1005E000D402CF93DF93EC0160E08E810E9407027A
:1005F00061E08E810E94070260E08E810E94070206
:100600008BE891E00197F1F7DF91CF910895CF92B8
:10061000DF92EF92FF920F931F93CF93DF936C01C2
:100620007C0187E0E80EF11CD0E0C0E0062F10E06E
:10063000B8010C2E02C0759567950A94E2F76170B7
:10064000F70181917F010E9407022196C430D105F4
:1006500079F7C601DF91CF911F910F91FF90EF9035
:10066000DF90CF900C94F102CF92DF92EF92FF9245
:100670000F931F93CF93DF93EC01F62E642F8C81A1
:100680000E9407028D818F3F19F060E00E940702EF
:100690000F2D10E08F8584FF25C06E0187E0C80E06
:1006A000D11CF12CE12CB8010E2C02C07595679578
:1006B0000A94E2F76170F60181916F010E940702CE
:1006C000FFEFEF1AFF0A88E0E816F10461F7CE01A8
:1006D000DF91CF911F910F91FF90EF90DF90CF901E
:1006E0000C94F102B80184E0759567958A95E1F75D
:1006F000CE010E9407036F2DCE01DF91CF911F9194
:100700000F91FF90EF90DF90CF900C94070340E0A3
:10071000682F89E892E00C94340381E00E948703FB
:100720008BE39FE10197F1F70895CF93DF93823038
:1007300029F49091980298609093980280939C027B
:1007400010929D0280E480939E0280E180939F023C
:1007500080E58093A00261E080918D020E943902C1
:1007600080918E028F3F19F061E00E94390261E0B2
:1007700080918F020E943902C9E8D2E09E01295877
:1007800032408091980284FD0BC084E090E0219675
:100790002817390744F461E08E810E943902EECFB8
:1007A00088E090E0F4CF8BE39DE00197F1F760E003
:1007B00080918D020E94070260E080918F020E946A
:1007C000070280918E028F3F19F060E00E940702BD
:1007D0008091980284FD34C063E089E892E00E9431
:1007E0000703CBE4D6E4CE010197F1F763E089E893
:1007F00092E00E9407032197F1F763E089E892E015
:100800000E94070383E592E00197F1F762E089E82F
:1008100092E00E9407038091980280620E94870301
:1008200084E0809399028CE00E9487030E948D03EC
:1008300082E080939A0286E0DF91CF910C94870347
:1008400080620E9487038BE496E40197F1F7809120
:10085000980280620E94870383E592E00197F1F796
:100860008091980280620E948703D5CF643008F09F
:1008700063E090919C02691710F06FEF690FE62F0B
:10088000F0E0E757FD4F9489890F80680C94870347
:1008900060E080E00E9436048DE291E00E94E10277
:1008A00061E081E00E9436048CE391E00C94E10267
:1008B00041E00E94340381E090E008951F920F927E
:1008C0000FB60F9211242F933F934F935F936F9323
:1008D0007F938F939F93AF93BF93EF93FF938091F9
:1008E000DE019091DF01A091E001B091E101892B3F
:1008F0008A2B8B2BD1F19091D901E091DA01F09103
:10090000DB018081892780838091DE019091DF0166
:10091000A091E001B091E101181619061A061B0614
:100920009CF48091DE019091DF01A091E001B091F3
:10093000E1010197A109B1098093DE019093DF01E4
:10094000A093E001B093E101FF91EF91BF91AF91CE
:100950009F918F917F916F915F914F913F912F91D7
:100960000F900FBE0F901F90189580911301E2EC2D
:10097000F0E0E4919FEF90931301E13051F030F0FB
:10098000E23069F060E00E940702DECF10926E0054
:10099000F9CF90916F009D7F90936F00F3CF90916E
:1009A00070009D7F9093700091E09093B0009091C3
:1009B000B100987F94609093B1001092B300E2CFA1
:1009C0001F920F920FB60F9211242F933F938F9384
:1009D0009F93AF93BF938091EF019091F001A0910D
:1009E000F101B091F2013091D40123E0230F2D37B2
:1009F00058F50196A11DB11D2093D4018093EF01FC
:100A00009093F001A093F101B093F2018091D50190
:100A10009091D601A091D701B091D8010196A11D66
:100A2000B11D8093D5019093D601A093D701B093C7
:100A3000D801BF91AF919F918F913F912F910F90CE
:100A40000FBE0F901F90189526E8230F0296A11D48
:100A5000B11DD2CF1F920F920FB60F9211242F9378
:100A60003F934F935F936F937F938F939F93AF9336
:100A7000BF93CF93DF93EF93FF938091D301C09106
:100A8000D201D0E087FF24C010928500109284002C
:100A90008091D3018F5F8093D3018091D301082E81
:100AA000000C990B8C179D0724F48091D3018C3096
:100AB000C4F18091840090918500049680349C4913
:100AC00008F47AC08091840090918500049676C0E5
:100AD0008091D301082E000C990B8C179D07C4F64A
:100AE000E091D3018E2FEE0F990BFC01EE0FFF1F4B
:100AF000E80FF91FEE59FD4F808186FFC9CFE091C5
:100B0000D3018E2FEE0F990BFC01EE0FFF1FE80FA4
:100B1000F91FEE59FD4F808160E08F730E9407023C
:100B2000B7CF2091840030918500E091D3018E2FC2
:100B3000EE0F990BFC01EE0FFF1FE80FF91FEE59A6
:100B4000FD4F81819281820F931F90938900809342
:100B50008800E091D3018E2FEE0F990BFC01EE0F70
:100B6000FF1FE80FF91FEE59FD4F808186FF11C06E
:100B7000E091D3018E2FEE0F990BFC01EE0FFF1FBA
:100B8000E80FF91FEE59FD4F808161E08F730E94DD
:100B90000702FF91EF91DF91CF91BF91AF919F91AC
:100BA0008F917F916F915F914F913F912F910F9016
:100BB0000FBE0F901F90189580E49CE990938900D8
:100BC000809388008FEF8093D301E3CF789484B52E
:100BD000826084BD84B5816084BD85B5826085BD39
:100BE00085B5816085BD80916E00816080936E00C7
:100BF00010928100809181008260809381008091B9
:100C00008100816080938100809180008160809369
:100C100080008091B10084608093B1008091B00029
:100C200081608093B00080917A00846080937A0024
:100C300080917A00826080937A0080917A0081604E
:100C400080937A0080917A00806880937A00109275
:100C5000C1000E944804809186028C3008F051C087
:100C600061E089E00E94390280918602282F30E0FD
:100C7000F901EE0FFF1FE20FF31FEE59FD4F9081B8
:100C8000907C9960908310928702109288022CE0E9
:100C9000622F0E94190C829FB001112430E020E0E5
:100CA000AB01420F531FFA01EE0FFF1FE40FF51FB8
:100CB000EE59FD4F908196FD16C02F5F3F4F2C30AF
:100CC000310571F781110FC01092800082E080938E
:100CD00081001092850010928400B19A80916F007B
:100CE000826080936F00E09186028E2F90E0FC017D
:100CF000EE0FFF1FE80FF91FEE59FD4F8081806452
:100D0000808382E00E94950361E088E00E943902BE
:100D100061E08CE00E94390260E082E00E943902CA
:100D200090E080E00E948D00412C512C32014394D0
:100D300088248A94982C54018091ED019091EE01C1
:100D4000892B11F40E94480481E080935F028FB7E1
:100D5000F8944091EF015091F0016091F101709190
:100D6000F2018FBF80914F0290915002A0915102E9
:100D7000B0915202481B590B6A0B7B0B80915B02AE
:100D800090915C02B0E0A0E084179507A607B70732
:100D900008F018C1C0E080915902C81760F4E091D2
:100DA0005502F0915602EC0FF11D62E080810E9425
:100DB0003902CF5FF0CF312C80915A02381608F0FB
:100DC0005FC0032D10E0E0915702F0915802E00F50
:100DD000F11F61E080810E943902E0915702F09199
:100DE0005802E00FF11F60E080810E940702D301EA
:100DF000C201032C04C0880F991FAA1FBB1F0A94AD
:100E0000D2F76C017C01E094F094212C809159027E
:100E10002816F8F4C22DD0E0E0915502F091560268
:100E2000EC0FFD1F80810E94DB012496CC0FDD1F9B
:100E3000CD50DE4F892B41F4888199818C299D29E1
:100E4000998388832394E2CF888199818E219F2181
:100E5000F7CFE0915702F0915802E00FF11F61E0E7
:100E600080810E9407028091570290915802080FDA
:100E7000191F60E0F80180810E94390233949CCFF1
:100E8000C3EFD1E08E01F801878D90A1892B31F459
:100E9000148E8FEF9FEF968F858F11A20A5F1F4FE1
:100EA00092E00F32190779F7D12C80915902D816A8
:100EB00008F053C0C12CED2CF12CEE0CFF1CF701F7
:100EC000E550FE4F7F0120915A02C21608F043C040
:100ED000F701608171810C2C02C0769567950A94A8
:100EE000E2F7D29E900111242C0D311DE3EFF1E0C9
:100EF00080E0458D568D2417350709F4A2C38F5F16
:100F000036968A30B1F760FF24C0E3EFF1E090E05D
:100F100080E0448D411118C0E0915302F0915402D9
:100F2000E20FF31F408156E0589FF001599FF00DEA
:100F30001124ED50FE4F448F368F258F10A2178E4F
:100F400061E00E94150105C0019636968A30910530
:100F500001F7C394B8CFD394A8CF80E099A19111A1
:100F6000892F26960C171D07C9F79FB7F894409153
:100F7000EF015091F0016091F1017091F2019FBF7A
:100F800040934F025093500260935102709352026B
:100F90008823C1F0809114028823A1F0809112026D
:100FA00090911302019771F480910F028093EC01EC
:100FB00081110DC0E0E0F0E0EF2B09F4BDCE0E94FE
:100FC0000000BACE10925F021092EC01F3CF0E94A3
:100FD0008D0360E080E00E94360489E491E00E9485
:100FE000EF0261E087E00E94360483E591E00E9411
:100FF000EF0261E087E00E943604D0E0C0E080911B
:10100000ED019091EE018C179D0734F085E591E09C
:101010000E94EF022196F3CFFC01E95AFE4F308186
:101020002091EC013213EEC101969093EE01809372
:10103000ED01049709F0BECF68EC70E080E090E02D
:101040000E949E028AE590E00E948D0060E080E0B0
:101050000E94360483E591E00E94E10260E081E0B5
:101060000E94360461E088E00E9407028CE591E06E
:101070000E94EF0261E084E00E9436048BE691E07A
:101080000E94E10268EE73E080E090E00E949E0220
:1010900082E00E94DB01009709F073C00E948D037B
:1010A00060E082E00E94360485E791E00E94EF0252
:1010B00060E08CE00E94360480E891E00E94EF023C
:1010C00068EC70E080E090E00E949E0260E08DE0BD
:1010D0000E94360480E891E00E94EF0268EC70E024
:1010E00080E090E00E949E0260E08EE00E94360464
:1010F00080E891E00E94EF0268EC70E080E090E010
:101100000E949E020E948D0360E080E00E943604EF
:1011100082E891E00E94EF0261E081E00E943604E3
:1011200080E991E00E94EF0264EF71E080E090E0DE
:101130000E949E020E948D0360E084E00E943604BB
:1011400090E080E00E948D0089E991E00E94EF022A
:101150006CE271E080E090E00E949E0268EE73E035
:1011600080E090E00E949E021092EE011092ED014C
:101170000E948D030E9448041092EE011092ED012E
:1011800019CF019759F70E948D036FE082E00E940A
:10119000360483E591E00E94E1026EE082E00E9465
:1011A000360483E591E00E94E10260E082E00E9463
:1011B000360464E670E080E090E00E949E0281EADE
:1011C00091E00E94E10261E084E00E94360480EB3D
:1011D00091E00E94EF0264E670E080E090E00E94FF
:1011E0009E020E948D0360E082E00E94360481EA44
:1011F00091E00E94E10264EF71E080E090E00E94E3
:101200009E0260E082E00E94360481EA91E00E9442
:10121000E10261E084E00E94360482EB91E00E94EA
:10122000EF0264E670E080E090E00E949E020E947F
:101230008D0360E082E00E94360481EA91E00E9422
:10124000E10264E670E080E090E00E949E0260E0CF
:1012500082E00E94360481EA91E00E94E10261E0AE
:1012600084E00E9436048AE591E00E94EF0264E681
:1012700070E080E090E00E949E020E948D0360E09A
:1012800082E00E94360481EA91E00E94E10264E675
:1012900070E080E090E00E949E0260E082E00E94A8
:1012A000360481EA91E00E94E10261E084E00E945C
:1012B000360484EB91E00E94EF0264E670E080E087
:1012C00090E00E949E020E948D0360E082E00E94F6
:1012D000360481EA91E00E94E10264E670E080E079
:1012E00090E00E949E0261E084E00E94360486EB5A
:1012F00091E00E94EF0264E670E080E090E00E94DE
:101300009E020E948D0360E082E00E94360481EA22
:1013100091E00E94E10264E670E080E090E00E94CB
:101320009E0268E270E080E090E00E949E020E94CF
:101330008D0360E082E00E94360485E791E00E9420
:10134000EF0264E670E080E090E00E949E0260E0C0
:101350008CE00E94360480E891E00E94EF0268EC85
:1013600070E080E090E00E949E0260E08DE00E94CC
:10137000360480E891E00E94EF0268EC70E080E0C3
:1013800090E00E949E0260E08EE00E94360480E8B9
:1013900091E00E94EF0268EC70E080E090E00E9433
:1013A0009E020E948D0360E084E00E94360460E0AB
:1013B00088E00E9407021092EB011092EA010E945D
:1013C0008D0360E082E00E94360488EB91E00E9489
:1013D000EF0268EC70E080E090E00E949E020E94C4
:1013E0008D0360E082E00E94360490E080E00E947D
:1013F0008D0089E991E00E94EF0260E971E080E0F0
:1014000090E0AACE64EF71E080E090E00E949E023E
:1014100090E080E00E948D0060E088E00E9407027A
:101420000E948D0360E081E00E94360487E391E032
:101430000E94EF0260E086E00E94360487EC91E0B3
:101440000E94EF0261E08FE00E94360483E591E0A4
:101450000E94E10264EF71E080E090E00E949E0251
:101460000E948D038091EA019091EB010196909387
:10147000EB018093EA01039709F07ECE61E08CE0F6
:101480000E940702809113018C3031F5E2ECF0E00C
:10149000C491C7FDC5C061E08CE00E943902CC2335
:1014A00009F48FC0C23009F0A0C08091B100887FDC
:1014B00083608093B10089EF8093B3008092DE0156
:1014C0009092DF01A092E001B092E1018091700062
:1014D000826080937000A4C08F3F09F0A1C08CE0AF
:1014E00080931301E2ECF0E0C491CF3F09F498C07F
:1014F000C13029F150F0C23009F440C0C7FD90C09E
:1015000061E08CE00E943902CDCF14BC15BC84B5DB
:10151000826084BD85B5816085BDEAEBF0E0849191
:10152000E82FF0E0EE0FFF1FEC55FF4F85919491EF
:10153000ECE9F0E084918093DD01C0E0ACCF109243
:1015400080001092810080918100886080938100EA
:1015500080918100816080938100EAEBF0E08491CA
:10156000E82FF0E0EE0FFF1FEC55FF4F85919491AF
:10157000ECE9F0E084918093DC018DCF1092B00013
:101580001092B1008091B00082608093B000809191
:10159000B10081608093B100EAEBF0E08491E82F24
:1015A000F0E0EE0FFF1FEC55FF4F85919491909363
:1015B000DB018093DA01ECE9F0E084918093D901BA
:1015C0006ACF85B5887F836085BD8CE787BD8092B3
:1015D000E6019092E701A092E801B092E9018091C2
:1015E0006E00826080936E001BC0C13011F5809147
:1015F0008100887F8160809381008FE39FE19093D9
:101600008900809388008092E2019092E301A09289
:10161000E401B092E50180916F00826080936F00D9
:10162000809199028B7F8093990288600E94870342
:10163000A3CDC23021F0C111F3CF8FE3C7CF8FE329
:101640003BCF61707ECC8091D2018C3008F08AC093
:1016500091E0980F9093D2018093860290E0FC0174
:10166000EE0FFF1FE80FF91FEE59FD4F88EB9BE0CF
:101670009283818310928C0210928B0282E291E01D
:1016800090938A028093890282E180938D028FEF8A
:1016900080938E0283E180938F0281E18093900298
:1016A00080E1809391028FE0809392028EE080939C
:1016B0009302109294021092950210929602109248
:1016C00097021092980281E00E9495031092F50112
:1016D0001092F9011092F8011092FA0188E191E05C
:1016E0009093F4018093F301EFE0F2E01082148212
:1016F00013821582369682E0EB34F807B9F783E05F
:1017000091E0909356028093550280E091E090938F
:1017100058028093570284E08093590283E08093BB
:101720005A0287E091E090935402809353028AE03A
:1017300090E090935C0280935B0284EF91E0909341
:101740005E0280935D02109261021092600210921C
:101750004F021092500210925102109252021092B7
:101760005F0208958FEF8093860284CF052E97FB4A
:101770001EF400940E94CD0B57FD07D00E94E80B89
:1017800007FC03D04EF40C94CD0B5095409530954A
:1017900021953F4F4F4F5F4F0895909580957095DD
:1017A00061957F4F8F4F9F4F08950E940A0CA59F10
:1017B000900DB49F900DA49F800D911D112408954C
:1017C000B7FF0C94D50B0E94D50B821B930B089589
:1017D000A1E21A2EAA1BBB1BFD010DC0AA1FBB1F35
:1017E000EE1FFF1FA217B307E407F50720F0A21BA7
:1017F000B30BE40BF50B661F771F881F991F1A9414
:1018000069F760957095809590959B01AC01BD013D
:10181000CF010895A29FB001B39FC001A39F700D97
:10182000811D1124911DB29F700D811D1124911DE8
:101830000895991B79E004C0991F961708F0961B2C
:10184000881F7A95C9F780950895EE0FFF1F0590C0
:10185000F491E02D0994F894FFCF04050600010BE4
:10186000033132333435363738392A3023FF00001C
:1018700000007502350204020000000058048501D2
:10188000D102D0020D0A00454E544552205448451D
:1018900020434F444500544F204F50454E20444F65
:1018A0004F520050415353574F52443A0020002AA0
:1018B00000303132330041636365737320477261D6
:1018C0006E7465640057454C434F4D4521210052CD
:1018D000452D4C4F434B494E47002E00536F6D65CD
:1018E0006F6E6520697320696E0074686520726F81
:1018F0006F6D004C4F434B454421004745542049F0
:101900004E2057495448494E3A00350034003200C1
:1019100031004E6F206F6E6520456E746572656490
:0C19200000494E434F5252454354000012
:107E0000112484B714BE81FFF0D085E080938100F7
:107E100082E08093C00088E18093C10086E0809377
:107E2000C20080E18093C4008EE0C9D0259A86E02C
:107E300020E33CEF91E0309385002093840096BBD3
:107E4000B09BFECF1D9AA8958150A9F7CC24DD24C4
:107E500088248394B5E0AB2EA1E19A2EF3E0BF2EE7
:107E6000A2D0813461F49FD0082FAFD0023811F036
:107E7000013811F484E001C083E08DD089C08234E0
:107E800011F484E103C0853419F485E0A6D080C0E4
:107E9000853579F488D0E82EFF2485D0082F10E0AE
:107EA000102F00270E291F29000F111F8ED06801E7
:107EB0006FC0863521F484E090D080E0DECF843638
:107EC00009F040C070D06FD0082F6DD080E0C81688
:107ED00080E7D80618F4F601B7BEE895C0E0D1E017
:107EE00062D089930C17E1F7F0E0CF16F0E7DF06D8
:107EF00018F0F601B7BEE89568D007B600FCFDCFD4
:107F0000A601A0E0B1E02C9130E011968C91119780
:107F100090E0982F8827822B932B1296FA010C0160
:107F200087BEE89511244E5F5F4FF1E0A038BF0790
:107F300051F7F601A7BEE89507B600FCFDCF97BE46
:107F4000E89526C08437B1F42ED02DD0F82E2BD052
:107F50003CD0F601EF2C8F010F5F1F4F84911BD097
:107F6000EA94F801C1F70894C11CD11CFA94CF0C13
:107F7000D11C0EC0853739F428D08EE10CD085E9AC
:107F80000AD08FE07ACF813511F488E018D01DD067
:107F900080E101D065CF982F8091C00085FFFCCF94
:107FA0009093C60008958091C00087FFFCCF809118
:107FB000C00084FD01C0A8958091C6000895E0E648
:107FC000F0E098E1908380830895EDDF803219F02E
:107FD00088E0F5DFFFCF84E1DECF1F93182FE3DFCA
:107FE0001150E9F7F2DF1F91089580E0E8DFEE27F6
:047FF000FF270994CA
:027FFE00040479
:00000001FF
